:0400000085EF00F098
:100008009501950195019501950195019501950138
:100018009501950195019501950195019501950128
:100028009501950195019501950195019501950118
:100038009501950195019501950195019501950108
:1000480095019501950195019501950195019501F8
:1000580095019501950195019501950195019501E8
:1000680095019501950195019501950195019501D8
:10007800950195019501950142009501950195011C
:1000880095019501950195019501950195019501B8
:1000980095019501950195014200950195019501FC
:1000A8009501950195019501950195019501950198
:1000B8009501950195019501950195019501950188
:1000C8009501950195019501950195019501950178
:1000D8009501950195019501950195019501950168
:1000E80042009501950195019501950195019501AC
:1000F8009501950195019501950195019501950148
:10010800FF00AAEF02F0BAEC02F0010E136E050E22
:10011800146E000E156EDFEC02F0090E136E050E5C
:10012800146E000E156ED5EC02F0000E146E080E5B
:10013800136E01EC03F0000E146E010E136E09EC41
:1001480003F0040E146EBF0E136E11EC03F0000ED4
:10015800146E080E136EE9EC02F0000E146E010E18
:10016800136EF1EC02F0040E146EC10E136EF9EC6E
:1001780002F001680A6803680C6805680E68076879
:100188001068C080C1B0CBEF00F0CEEF00F0010ED8
:10019800CFEF00F0000EFF0A166EC1501618FE0BC6
:1001A8001618C16EC1B2DBEF00F0DEEF00F0010EF1
:1001B800DFEF00F0000EFF0A166E1646C150161843
:1001C800FD0B1618C16EC1B4ECEF00F0EFEF00F0B4
:1001D800010EF0EF00F0000EFF0A166E16461646E6
:1001E800C1501618FB0B1618C16EC1B6FEEF00F011
:1001F80001EF01F0010E02EF01F0000EFF0A166E8A
:10020800164616461646C1501618F70B1618C16E34
:10021800C1B811EF01F014EF01F0010E15EF01F074
:10022800000EFF0A166E163AC1501618EF0B161874
:10023800C16EC1BA22EF01F025EF01F0010E26EFE1
:1002480001F0000EFF0A166E163A1646C15016182F
:10025800DF0B1618C16EC1BC34EF01F037EF01F0A7
:10026800010E38EF01F0000EFF0A166E163A164618
:100278001646C1501618BF0B1618C16EC1BE47EFFF
:1002880001F04AEF01F0010E4BEF01F0000EFF0AFA
:10029800166E16321632C15016187F0B1618C16E1C
:1002A800C09025EC03F0C080C1B05DEF01F060EFB5
:1002B80001F0010E61EF01F0000EFF0A166EC15049
:1002C8001618FE0B1618C16EC1B26DEF01F070EF73
:1002D80001F0010E71EF01F0000EFF0A166E1646CE
:1002E800C1501618FD0B1618C16EC1B47EEF01F08F
:1002F80081EF01F0010E82EF01F0000EFF0A166E89
:1003080016461646C1501618FB0B1618C16EC1B614
:1003180090EF01F093EF01F0010E94EF01F0000E61
:10032800FF0A166E164616461646C1501618F70BE3
:100338001618C16EC1B8A3EF01F0A6EF01F0010EC7
:10034800A7EF01F0000EFF0A166E163AC1501618F4
:10035800EF0B1618C16EC1BAB4EF01F0B7EF01F098
:10036800010EB8EF01F0000EFF0A166E163A164697
:10037800C1501618DF0B1618C16EC1BCC6EF01F0CC
:10038800C9EF01F0010ECAEF01F0000EFF0A166E68
:10039800163A16461646C1501618BF0B1618C16EE7
:1003A800C1BED9EF01F0DCEF01F0010EDDEF01F085
:1003B800000EFF0A166E16321632C15016187F0B41
:1003C8001618C16EC090C08020EC03F0C090C5EF35
:1003D80000F085EF00F0000EC26E000EC16E000E38
:1003E800BE6E000EBF6E000EC06E070ECA6EC668E7
:1003F800000EC76EFE0EC86E000EC96E000E040118
:10040800186FFE0E106F000E086F070E206F006940
:10041800000E196F000E216F000E096F000E016F9C
:10042800000E116F000E226F000E026F000E0A6F91
:10043800000E126F000E1A6F03690B6913691B69AE
:10044800070E236F04690C6914691C690F0E246F69
:100458001200010E0001E86F090EF96F050EFA6F20
:10046800000EFB6F050EF16F120EF06F020EFD6F9E
:10047800000EF86F080EF76F000EEF6F010EEE6FAB
:10048800000EFF6F000EFE6FB49AB498B49EB49C31
:10049800A49AA498A49EA49C800EFC6F1200000E3F
:1004A8000001E86F010EF96F050EFA6F000EFB6F81
:1004B800050EF16F110EF06F020EFD6F000EF86F52
:1004C800080EF76F000EEF6F010EEE6F000EFF6F54
:1004D800000EFE6FB09AB098B09EB09CA09AA098FB
:1004E800A09EA09C800EFC6F1200D68A000ED6BE7D
:1004F800010E136ED69E550E0401596FAA0E596F40
:100508005991000E5F6F000E5E6F080E5D6F550EFD
:10051800596FAA0E596F598113B002D0D69E01D0D7
:10052800D68E1200000E0001606F000E616F000E83
:10053800626F000E636F000E646F000E656F000E31
:10054800666F000E676F000E686F120001EE01F112
:10055800120EEE6AE806FDE10401080E5D6F000E5A
:100568005E6F000E5F6F000187EF00F079EC02F01C
:1005780096EC02F0EFEC01F0C9EC02F053EC02F05B
:100588002DEC02F019EC03F01200600E0001AD6FC3
:10059800000EAF6F000EB36F080EB16F000EB06F94
:1005A8001200010E0001E86F13C5F9F014C5FAF046
:1005B80015C5FBF01200000E0001E86F13C5F9F035
:1005C80014C5FAF015C5FBF01200010E0001E86F22
:1005D80013C5F7F014C5F8F01200010E0001E86F1A
:1005E80013C5EEF014C5EFF01200010E0001E86F1C
:1005F80013C5F0F014C5F1F01200000E0001E86F09
:1006080013C5F7F014C5F8F01200000E0001E86FEA
:1006180013C5EEF014C5EFF01200000E0001E86FEC
:1006280013C5F0F014C5F1F01200550E0001B46FB7
:10063800AA0EB46FB4811200010E0001E86FFC8BA2
:0E0648001200000E0001E86FFC8B1200110082
:020000040020DA
:10000000FFFFFFFFFFFFFFFFFFFFFFFFFFFFFFFF00
:10001000FFFFFFFFFFFFFFFFFFFFFFFFFFFFFFFFF0
:10002000FFFFFFFFFFFFFFFFFFFFFFFFFFFFFFFFE0
:10003000FFFFFFFFFFFFFFFFFFFFFFFFFFFFFFFFD0
:020000040030CA
:100000008CEEFFFF9FFFFFFFFFFFFFFFFFFFFFFFE4
:10001000FFFFFFFFFFFFFFFFFFFFFFFFFFFFFFFFF0
:03002000FFFFFFE0
:00000001FF
